:020000020000FC
:020000001CC022
:0200080052C0E4
:1000380050C008E00EBF0FEF0DBF0FEF04B900E08E
:1000480005B92EE727B9539854985B985C98689837
:10005800709822E428B920E02BB900E00093000151
:1000680000E00093010100E0009302010093030106
:100078000093040103E00093050100E000930601EA
:100088000CE00093690002E000931C0002E00DBB45
:1000980002E004BD0AEF07BD02E000936E0003E032
:1000A80005BD7894FFCF419801E00093000100E07E
:1000B8000093010100E00093020100930301009303
:1000C800040103E00093050100E00093060151D00C
:1000D800189500910001013031F556D02AD00091D1
:1000E8000101003029F0013049F0023061F017C0F9
:1000F80040910501439556E072D00CC0409105012E
:1001080057E06DD007C0409105014395439557E0EE
:1001180066D000C0009101010395033008F000E0AB
:100128000093010105C022E428B920E02BB900C0E2
:100138001895009104010395009304010A3FC0F04B
:1001480000E0009304010091020103950A3068F071
:1001580000E0009302011091030113951A3008F092
:1001680010E01093030105D003C00093020101D0F1
:1001780008951091020100910301110F110F110F41
:10018800110F012B05B9089500910601013079F08E
:10019800609903C04C9906C0089511D001E00093FE
:1001A8000601089514D001E00093060108956099AE
:1001B80008954C99089500E0009306010895009170
:1001C8000501003019F00A95009305010895009182
:1001D8000501053019F0039500930501089524E4FD
:1001E80028B920E02BB902D00DD0089528B1237C7E
:1001F80043FD246042FD286041FD206140FD2062EE
:1002080028B9089528B12F7B53FD206428B92BB154
:10021800287F52FD216051FD226050FD24602BB9DA
:02022800089537
:00000001FF
