:020000020000FC
:020000001CC022
:020008005CC0DA
:02002C0074C09E
:1000380060C008E00EBF0FEF0DBF0FEF04B900E07E
:1000480005B92EE727B9539854985B985C98689837
:10005800709822E428B920E02BB900E00093000151
:1000680000E00093010100E0009302010093030106
:1000780003E00093040100E0009305010CE0009305
:10008800690002E000931C0002E00DBB02E004BD21
:100098000AEF07BD02E000936E0003E005BD0DE323
:1000A8000093890009E0009388000DE00093810027
:1000B80002E000936F007894FFCF419800E000932E
:1000C80085000093840002E00093160001E000938D
:1000D800000100E00093010100E000930201009399
:1000E800030103E00093040100E0009305014CD0F4
:1000F800189500910001013059F551D00091010186
:10010800003059F0013079F0023091F01DC00091B3
:100118000001013009F422D018954091040143955B
:1001280056E068D00CC04091040157E063D007C086
:10013800409104014395439557E05CD000C000917D
:1001480001010395033008F000E00093010105C0A8
:1001580022E428B920E02BB900C0189500910201CB
:1001680003950A3068F000E0009302011091030142
:1001780013951A3008F010E01093030105D0089584
:100188000093020101D0089510910201009103012A
:10019800110F110F110F110F012B05B908950091BF
:1001A8000501013079F0609903C04C9906C00895A3
:1001B80011D001E000930501089514D001E00093E7
:1001C80005010895609908954C99089500E00093F9
:1001D8000501089500910401003019F00A95009373
:1001E8000401089500910401053019F00395009366
:1001F8000401089524E428B920E02BB902D00DD0D9
:10020800089528B1237C43FD246042FD286041FD08
:10021800206140FD206228B9089528B12F7B53FD45
:10022800206428B92BB1287F52FD216051FD22603E
:0802380050FD24602BB908956C
:00000001FF
