:020000020000FC
:020000001CC022
:020008005AC0DC
:02002C0058C0BA
:1000380058C008E00EBF0FEF0DBF08E00EBF0FEF6E
:100048000DBF0FEF04B900E005B92EE727B927E087
:100058002AB953985B9822E428B920E02BB900E02C
:100068000093000100E00093010100E00093020109
:1000780000930301009304010CE00093690002E07F
:1000880000931C0002E00DBB02E004BD0AEF07BDAF
:1000980002E000936E0003E005BD0DE300938900C4
:1000A80009E0009388000DE00093810002E00093CE
:1000B8006F007894FFCF419801E00093000100E0C1
:1000C8000093010100E000930201009303010093F3
:1000D800040153D0189500910001013009F437D07C
:1000E800189500910001013069F500910101003077
:1000F80029F0013061F0023099F020C020E428B9DD
:1001080020E02BB928E028B923E02BB912C020E45D
:1001180028B920E02BB920E328B927E02BB909C07A
:1001280020E428B920E02BB928E228B927E02BB928
:1001380000C0009101010395033008F000E000932E
:10014800010104C022E428B920E02BB918950091D8
:10015800020103950A3068F000E000930201109153
:10016800030113951A3008F010E01093030105D02D
:1001780008950093020101D00895109102010091A1
:100188000301110F110F110F110F012B05B908955C
:00000001FF
