:020000020000FC
:020000003FC0FF
:0200080085C0B1
:02002C00CBC047
:0200380097C06F
:1000800008E00EBF0FEF0DBF0FEF04B900E005B998
:100090002EE727B927E02AB9539854985B985C98C3
:1000A0006898709822E428B920E02BB900E000930A
:1000B000000100930101009302010093030103E09A
:1000C0000093040100E00093050100E000930601A5
:1000D00004E0009307010CE00093690002E0009344
:1000E0001C0002E00DBB02E004BD0AEF07BD02E008
:1000F00000936E0003E005BD0DE30093890008E066
:10010000009388000DE00093810002E000936F00EF
:100110007894FFCF419803E005BD00E0009385008F
:100120000093840002E0009316000DE0009381002C
:100130000DE00093810001E00093000100E00093D6
:10014000010100E0009302010093030103E000932A
:10015000040100E00093050100E00093060104E0C3
:100160000093070196D0189500910001013019F015
:10017000023019F072C098D001C000C00091010196
:1001800093D000910101003099F0013091F00230DC
:1001900089F0033081F0043079F0053071F00630D9
:1001A00069F0073061F0083059F0093051F051C062
:1001B00016C01BC01FC025C029C02DC031C035C00E
:1001C00039C03DC000910001013009F007C09CD04A
:1001D000ACD000910001013009F445D01895409150
:1001E0000401439556E0F2D02FC04091040157E03E
:1001F000EDD02AC0409104014395439557E0E6D0E5
:1002000023C042E050910601E1D01EC043E050916E
:100210000601DCD019C044E050910601D7D014C0CB
:1002200043E050910701D2D00FC044E05091070144
:10023000CDD00AC045E050910701C8D005C046E0C6
:1002400050910701C3D000C00091010103950A300D
:1002500008F000E00093010105C022E428B920E085
:100260002BB900C018950091020103950A3068F07F
:1002700000E0009302011091030113951A3008F079
:1002800010E01093030105D008950093020101D0FE
:1002900008951091020100910301110F110F110F28
:1002A000110F012B05B9089500910001013009F0EB
:1002B000089500910501013079F0609903C04C99CF
:1002C00006C0089511D001E000930501089514D0EF
:1002D00001E0009305010895609908954C990895EF
:1002E00000E000930501089500910401003019F029
:1002F0000A9500930401089500910401053019F056
:1003000003950093040108950091060103950830B8
:1003100008F000E000930601009107010395083002
:1003200008F000E000930701089506D00091000155
:10033000003009F020D0089500910601063019F030
:10034000073051F0089510910401113091F01230EE
:1003500081F0133071F0089510910401103049F0CC
:10036000113039F0123029F0133019F0143009F03F
:10037000089522D0089500910701063019F0073042
:1003800061F00895109104011230A1F0133091F042
:10039000143081F0153071F008951091040111307E
:1003A00049F0123039F0133029F0143019F01530BB
:1003B00009F0089501D0089502E00093000101E0E2
:1003C0000093050100E000938100089524E428B91A
:1003D00020E02BB902D00DD0089528B1237C43FD35
:1003E000246042FD286041FD206140FD206228B963
:1003F000089528B12F7B53FD206428B92BB1287FA5
:1004000052FD216051FD226050FD24602BB90895FA
:00000001FF
