:020000020000FC
:020000003FC0FF
:0200080085C0B1
:02002C00BCC056
:020038008FC077
:1000800008E00EBF0FEF0DBF0FEF04B900E005B998
:100090002EE727B927E02AB9539854985B985C98C3
:1000A0006898709822E428B920E02BB900E000930A
:1000B000000100930101009302010093030103E09A
:1000C0000093040100E00093050100E000930601A5
:1000D00004E0009307010CE00093690002E0009344
:1000E0001C0002E00DBB02E004BD0AEF07BD02E008
:1000F00000936E0003E005BD0DE30093890008E066
:10010000009388000DE00093810002E000936F00EF
:100110007894FFCF419800E000938500009384001D
:1001200002E00093160001E00093000100E000935C
:10013000010100E0009302010093030103E000933A
:10014000040100E00093050100E00093060104E0D3
:10015000009307018AD0189500910001013009F041
:1001600068C08ED000910101003099F0013091F00B
:10017000023089F0033081F0043079F0053071F0FD
:10018000063069F0073061F0083059F0093051F05D
:100190004CC011C016C01AC020C024C028C02CC03A
:1001A00030C034C038C000910001013009F002C0F5
:1001B00046D091D0189540910401439556E09CD0CB
:1001C0002FC04091040157E097D02AC0409104010C
:1001D0004395439557E090D023C042E050910601EB
:1001E0008BD01EC043E05091060186D019C044E078
:1001F0005091060181D014C043E0509107017CD09A
:100200000FC044E05091070177D00AC045E05091FB
:10021000070172D005C046E0509107016DD000C0C3
:100220000091010103950A3008F000E000930101FC
:1002300005C022E428B920E02BB900C01895009130
:10024000020103950A3068F000E00093020110916A
:10025000030113951A3008F010E01093030105D044
:1002600008950093020101D00895109102010091B8
:100270000301110F110F110F110F012B05B9089573
:1002800000910501013079F0609903C04C9906C0D6
:10029000089511D001E000930501089514D001E004
:1002A000009305010895609908954C99089500E020
:1002B00000930501089500910401003019F00A959A
:1002C00000930401089500910401053019F003958D
:1002D000009304010895009106010395083008F089
:1002E00000E000930601009107010395083008F033
:1002F00000E000930701089524E428B920E02BB919
:1003000002D00DD0089528B1237C43FD246042FD26
:10031000286041FD206140FD206228B9089528B180
:100320002F7B53FD206428B92BB1287F52FD21601B
:0C03300051FD226050FD24602BB908959F
:00000001FF
